:100000000C942A000C9447000C9447000C94470071
:100010000C9447000C9447000C9447000C94470044
:100020000C9447000C9447000C9447000C94470034
:100030000C9447000C9447000C9447000C94470024
:100040000C9447000C9447000C9447000C94470014
:100050000C94470011241FBECFE5D4E0DEBFCDBF16
:1000600010E0A0E6B0E0E2E1F1E002C005900D9200
:10007000A036B107D9F710E0A0E6B0E001C01D92AC
:10008000A036B107E1F70E9449000C9487000C9458
:10009000000017BA8FEF84BB80EF88BB70EA28ECB2
:1000A00030E060E550E140E286B3807F803A41F481
:1000B00075BB88EE93E0F9013197F1F70197D9F715
:1000C00086B3807F803541F465BB88EE93E0F9010B
:1000D0003197F1F70197D9F786B3807F803141F4EA
:1000E00055BB88EE93E0F9013197F1F70197D9F705
:1000F00086B3807F803249F445BB88EE93E0F901F6
:100100003197F1F70197D9F7CFCF15BACDCFF89442
:02011000FFCF1F
:00000001FF
